:0A09BB0041004200430044004500E3
:10088100E4F5A0C282C280C2817F38FE12096E7F68
:10089100047E001208DD7F067E0012096E7F047E51
:1008A100001208DD7F0C7E0012096E7F047E0012AB
:1008B10008DD7F017E0012096E7F047E001208DDD3
:0708C1007F807E0002096E3A
:1008C80012093BC2877FE87E031208DD120953C272
:0508D800877FE87E03AC
:1008DD00E4FDFCC3ED9FEC9E5015E4FBFA0BBB0051
:0F08ED00010ABA01F8BB7EF50DBD00010C80E4D5
:0108FC0022D9
:03096B007F80FE8C
:10096E00C280C281D2828FA07F0A7E001208DDC2B1
:02097E008222D3
:10098000D280C281D2828FA07F0A7E001208DDC28F
:020990008222C1
:1008FD008B088A09890AAB08AA09A90A120922607C
:10090D0013050AE50A7002050914F9120922FF12EE
:05091D00098080E222C8
:10093B00900000B2877F017E001208DDA3E582B430
:07094B0062F1E583B405EC45
:010952002282
:10095300900000B2877F017E001208DDA3E582B418
:07096300B1F1E583B402ECE1
:01096A00226A
:0909C5001208D412093BC287227A
:0C09A3001208C81208D4120953C287229F
:100992001208C812093B1208D7C287120953C2872C
:0109A2002232
:0909CE001208C8120953C2872265
:0609D700120953C2872241
:1008000012088175900FAF90EF6401701112096B9F
:100810007BFF7A0979BB1208FD1209C5805FAF9092
:10082000EF6402701112096B7BFF7A0979BD12081F
:10083000FD1209A38047AF90EF640370147F80FE20
:1008400012096E7BFF7A0979BF1208FD12099280A6
:100850002CAF90EF64047F807012FE12096E7BFF54
:100860007A0979C11208FD1209CE80117E001209A1
:100870006E7BFF7A0979C31208FD1209D7438701FD
:010880002255
:030000000209AF43
:0C09AF00787FE4F6D8FD75810A0208008C
:10092200BB010689828A83E0225002E722BBFE02D3
:09093200E32289828A83E4932206
:00000001FF
